:020000040808EA
:100000000000080804480808000006000A0005016E
:080010000402280500000000B5
:10001800DC40080809480A4908B5884205D0094A59
:10002800824202D0121A03F041FF0748074A002112
:10003800121A03F046FF064808BD00BF0000002062
:1000480034470808A4000020A40000200C0A00205F
:100058000C0A002070B501F0BDFF074B074C1E4687
:10006800E41AA4080025A54204D056F8253098477C
:100078000135F8E770BD00BFEC46080830470808AE
:1000880000F032BC08B500F00DF9BDE8084001F0F9
:1000980063BF01F01BBC01F021BC0078B0FA80F00E
:1000A80040097047012303707047000010B501F044
:1000B8006BFD054C206002F069FB0A22216801F003
:1000C800F9FD206810BD00BF280000202DE9F04F81
:1000D80000248846274685B0914601900293421E27
:1000E800019B9F4240DA59F827600E9930464FEA43
:1000F800820B59F822A04FF0010503F0BBFE00B9AE
:1001080005464FF0010251460E98039203F094FE03
:10011800039A00B90246EDB2D2B2954221D058F8FE
:10012800275058F80B00294603F0DEFB314683467A
:100138000E9803F0D9FB0146584603F0DFFC314620
:100148008346504603F0D0FB0146584603F08AFD2B
:10015800294603F0CBFB029903F08CFE08B184F02A
:1001680001043A460137BBE7204605B0BDE8F08FE9
:100178002DE9F043A5B001F0E3F93B4C2368C01A20
:1001880041F2873398426CD901F0DAF9374D206093
:100198002B78374C0BB3284600F07EFD06462846E0
:1001A8000F4600F099FDCDE90067CDE90201314A1B
:1001B800802104A801F0A2FB2378D3B10023237087
:1001C80001F0BEF92C4B1C68041B02F0DFFA234631
:1001D8002A4A012101F078FD0BE0294904A803F01F
:1001E800ABFE23782BB90123237001F0A9F9224B28
:1001F800186002F0CBFA04A901F004FD02F0C6FA77
:10020800204901F0ECFC02F0C1FA0446174800F05E
:1002180043FD80461548894600F05EFD06460F46B8
:100228004046494603F00CFB39460546304603F084
:1002380007FB2B460090144A14490420FFF746FF99
:100248000A220146204601F035FD02F09FFA1049C6
:1002580001F0C5FC02F09AFA0E4B0A22196801F067
:1002680029FD25B0BDE8F0836C020020B000002015
:1002780084020020F0400808A8000020F640080882
:100288001641080822410808000000201800002034
:10029800354108082800002013460A46012101F0CC
:1002A80013BD00002DE9F04FCDB002F0A1FB0368AB
:1002B8001B69984700280DDD02F09AFB03685B690B
:1002C8009847C1B2A04800F0E1FE0028EDD0FFF742
:1002D8004FFFEAE79D4C2378092B00F29782DFE86D
:1002E80013F00A00220095025700E500CC00BF0178
:1002F800D5003A00020101F0D1FA08B101232370B8
:1003080001F01EF9924C2368C01A41F288339842D2
:1003180040F27C8201F014F9206002F037FA8D492E
:1003280001F070FC72E202F031FA8B4901F06AFCCC
:100338000CA800F051FF10210CA800F05AFF0CA9DE
:10034800864800F089FF18B902F020FA84491BE0BA
:10035800072323705AE27C4D2B784BB101F0F0F85B
:100368006B6BC01A42F20F73984201D80323F0E76F
:1003780001F0E6F8764B1B68C01A7A4B984240F2B7
:10038800458202F003FA784901F03CFC0423E0E7D7
:1003980001F084FA6E4E002865D0744801F07AFDA9
:1003A8000546694800F078FC80466748894600F0B1
:1003B80093FC6F4B82461B68284607936D4B8B4610
:1003C8001B68069302F0D6FF6B4ACDE90401CDE91C
:1003D80002AB4FF48071CDE900890CA801F08EFAC8
:1003E800664B0CAA1968664B0AA81B788DF8003072
:1003F8003C2301F089FF0B9D7DB16B68013B6B606D
:100408005BB92B6828469B689847AB68013BAB6093
:100418001BB92B682846DB68984702F0B7F90CA986
:1004280001F0F0FB484800F037FC824646488B460E
:1004380000F052FC804689465046594603F000FABF
:1004480049460546404603F0FBF92B4600904D4AC5
:100458004D490420FFF73AFE4C4B186001F070F844
:100468000523306075E701F06BF83368C01A4EF663
:100478005F23984240F2CA8188E701F061F8344B63
:100488001B68C01AB0F57A6F80D2BFE101F058F846
:100498002F4D2B68C01A41F28733984240F2B6813B
:1004A8000823237001F04CF82860AFE10CA800F095
:1004B80093FE10210CA800F09CFE0CA9274800F020
:1004C800CBFE2B4B1B6813B1304B1B680BB90923B0
:1004D80003E02F4B64221A600623237001F030F8E2
:1004E8001B4B186092E12A4D02F050F9294901F09E
:1004F80089FB2B68DFF858A0002B1D4A4CDD1168DA
:1005080011B9013B2B6019E0DFF880B0DBF800106F
:10051800002941D1013B0A2193FBF1F22B6001FB39
:1005280012335BB9084E337843B101F009F8736BA5
:10053800C01A42F20F73984240F24B814FF47A701E
:1005480001F02CFC09237AE0B0000020AC00002068
:1005580088020020434108085A4108085002002038
:10056800724108081FBF02008A4108087C02002067
:100578002800002074020020A04108081000002074
:1005880070020020000000201800002068020020EF
:1005980014000020D441080813689E4FDFF8989291
:1005A800DFF89882B3B19C4B1B689BB164232B6026
:1005B80002F0ECF83A689949FFF76EFE0021062030
:1005C80002F06FFB00F0BCFF0123C9F8000088F8B7
:1005D800003033E002F0DAF8914901F013FB4FF4F0
:1005E800FA7001F0DBFB8F4B01261B683246029341
:1005F8004FF496730AA901930CA80DF121030096F4
:100608004FF0000BADF828608DF8216001F016FA64
:100618004FF4FA7001F0C2FBC7F800B002F0B6F868
:100628003A687E49FFF738FE5946062002F039FB42
:1006380000F086FF88F80060C9F8000008232370DE
:1006480000F07EFFCAF8000002F0A0F8764901F039
:10065800C6FA02F09BF80A22296801F02BFBD5E0C4
:100668000CA800F0B9FD10210CA800F0C2FD0CA9DF
:100678006E4800F0F1FD44F6206149F640426B48AF
:1006880000F068FE804601210620B8F1000F55D021
:1006980002F007FB02F07AF8654901F0B3FA4FF46B
:1006A800FA7001F07BFB112002F014FB002840F0E7
:1006B800AD80584D2B68BBB902F068F85D4901F070
:1006C800A1FA584B11221B68ADF82420029301228D
:1006D8004FF461638DE80C0009A90DF122030AA803
:1006E8008DF8222001F0AAF94FF4FA7001F056FBB8
:1006F8004E4800F00DFE00F04000C2B2002A15BFBF
:10070800002201210123002316BF114608460120BB
:100718002B6001F02DF802F039F82A683F49FFF7FD
:10072800BBFD0021062002F0BCFA00F009FF424B95
:1007380001221860414B1A700823CEE602F0B1FA84
:1007480002F024F83E4901F05DFA4FF4FA7001F026
:1007580025FB02F01BF8054600F0F2FE394F4FF476
:100768007A723B680121C31AB3FBF2F32846364A72
:1007780001F0AAFA2B4B01251B682A460293B423E1
:100788000DF1260101930AA80DF12303214E0095CE
:10079800ADF826508DF8235001F050F94FF4FA7057
:1007A80001F0FCFA356001F0F1FF32681B49FFF7F0
:1007B80073FD4146062002F074FA00F0C1FE1E4B9C
:1007C80018601E4B1D700823237000F0B9FE3860B6
:1007D8001CE0304600F060FA80463046894600F05A
:1007E8007BFA06460F464046494603F029F8394643
:1007F8008046304603F024F843460090134A1449D3
:100808000420FFF763FCCBF8000097E64DB0BDE885
:10081800F08F00BF7402002068020020DC41080845
:10082800E541080878020020FE410808500200202F
:100838001142080824420808A80000208402002069
:100848003A420808880200205042080800000020A8
:10085800180000201B4B70B501241C601A4B1B4D5F
:100868001C7000F0FDFD2046194C002100F078FFB7
:100878000021204601F0CEFA2046164C2A46164999
:1008880002F0C2FA11230C221449204600F0C2FDDE
:100898002A461349204602F0B7FA124800F056F9E2
:1008A80002F0B2F900231A4642F2FD2102F0B4F92F
:1008B80002F0AAF9BDE8704000231A46042102F0AC
:1008C800B3B900BF7802002070020020A400002005
:1008D8007C020020500200203B1E0808000900206E
:1008E80049110808B000002010B588B001F04EFF8B
:1008F8004FF4165101F030FF02F07AF84FF4165118
:1009080002F070F80121062002F0BAF90021062051
:1009180002F0C7F900F014FE0F4B012418600F4BCA
:1009280001A81C7000F03AF801A800F081F801A8AD
:1009380000F020F80A4A0B490B4801F0D5FB0023C8
:1009480002220A490A4800F099FF0022214620465F
:1009580000F00EFF08B010BDA8000020840200209F
:100968006A420808B5000808C520080828000020C1
:100978006F42080810B50446024B036000F080F887
:10098800204610BD9042080810B50446FFF7F2FF54
:1009980020461C2102F03DFA204610BD38B5044619
:1009A800084900F075F8084B00252360257202F00D
:1009B800EBF94223E060237402F01AF8A561606144
:1009C800204638BD8C020020904208082DE9F047E7
:1009D800037A0446894617462BB9BDE8F0474069B3
:1009E8000368DB681847D0F80C800025404602F001
:1009F80094F8BD4217D27E1B202E217CE06828BFC8
:100A0800202602F07BF8E06809EB0501036832460E
:100A1800DB6835449847AF428CBF00210121E0686C
:100A280002F073F8E5E74046BDE8F04702F07EB80B
:100A380008B50C220249FFF7C9FF012008BD00BF15
:100A48002C00002010B5094C00F00AFD11230C22DF
:100A58000749204600F0DEFC2046064A064902F017
:100A6800D3F9BDE81040054800F070B82C04002008
:100A780000090020A4000020491108088C02002069
:100A8800704710B50446082102F0C3F9204610BD8E
:100A9800014A416002607047A042080800F0E0BCCB
:100AA8000022027042708280826002730282426178
:100AB80002768283026280F824200285C26280F86E
:100AC8003020426380F8382080F83920C2630264FD
:100AD800426480F8482080F84920C2640265426573
:100AE80080F8582080F85920C2650266426680F86E
:100AF800682080F86920C2660267426780F878201B
:100B080080F87920C267C0F88020C0F8842080F877
:100B1800882080F88920C0F88C20C0F89020C0F880
:100B2800942080F8982080F89920C0F89C20C0F87C
:100B3800A020C0F8A42080F8A82080F8A920C0F838
:100B4800AC20C0F8B020C0F8B420704710B50446F7
:100B5800FFF7A6FF04F1B800FFF7A2FF0023022267
:100B680084F8703184F8713184F8812184F88231F5
:100B780084F8833184F88431C4F88831C4F88C311E
:100B8800C4F89031C4F89431C4F89831C4F89C3151
:100B980084F87231204610BDA1F14103052B02D81B
:100BA800A1F137007047A1F16103052B94BFA1F1B2
:100BB8005700A1F13000704738B5044605782D2D4F
:100BC80008BF0134204603F05FF9642358432246E6
:100BD80014F8013BA3F130010929F8D92E2B0BD1C8
:100BE8005378303B092B07D80A2101FB030093787F
:100BF800303B092B98BFC0182D2D08BF404238BD87
:100C080038B504460D4603F03FF96423B0FBF3F210
:100C180003FB1200114B2A80434320460278044606
:100C2800A2F13001092900F10100F7D92E2A0BD1D0
:100C38000A490A2014F8012F303A092A04D8B1FBCE
:100C4800F0F101FB0233F5E703EB830301330322E1
:100C5800B3FBF2F36B6000232B7238BD80969800CB
:100C6800034610B553F81C2F044642605A68826048
:100C78001B7A0373034653F8282F02615A684261AE
:100C88001B7A037600F05CFC0123606363702370B9
:100C980010BD000000000000D0B5002304464370DA
:100CA800806802F045FB0AA3D3E9002302F0E0FCC8
:100CB8000646A0880F4602F04BFB0B460246394613
:100CC800304602F0F9F9237B0BB101F10041D0BDA8
:100CD8000000000065CDCD41D0B500230446437027
:100CE800406902F025FB0AA3D3E9002302F0C0FC07
:100CF8000646208A0F4602F02BFB0B460246394671
:100D0800304602F0D9F9237E0BB101F10041D0BD84
:100D18000000000065CDCD4110B5836804464360EE
:100D280000F00EFC0123E0606370237010BD10B565
:100D380083680446436000F003FC0123E0606370AD
:100D4800237010BD10B504460846FFF735FFA060B4
:100D580010BD10B50446084603F096F8A06010BD13
:100D680010B5C3680446836000F0EAFB01236060A5
:100D78006370237010BD10B504460846FFF71CFFCA
:100D8800E06010BD10B5C3680446836000F0D8FB6E
:100D9800012360606370237010BD10B504460846D7
:100DA80003F072F8E06010BD10B50146044610303B
:100DB80003F0C2F800F0C4FB0123206284F8253058
:100DC80084F8243010BD102203F0E1B8F8B590F88B
:100DD80071510446002D00F08B8090F87211FFF7D6
:100DE800DBFE94F8731102462046FFF7D5FE94F80F
:100DF800703100EB0210C0B2834272D1D4F89C313A
:100E08000133C4F89C3194F8843123B1D4F8943177
:100E18000133C4F8943194F88131FBB1012B4DD1E1
:100E280004F1F000FFF778FF04F58070FFF77FFF0B
:100E380094F8843104F1B8064BB13046FFF710FF3F
:100E480004F58870FFF78CFF04F5907027E084F8AC
:100E5800B83084F8103184F8203122E004F580702D
:100E6800FFF765FF94F8843104F1B8065BB13046AA
:100E7800FFF7F6FE04F59870FFF772FF04F5A0700F
:100E8800FFF76EFF05E084F8B83084F8303184F855
:100E9800403104F5A870FFF775FF04F5B070FFF74F
:100EA8005FFF0021084600F053FB3146B822204678
:100EB80002F0FCFF0021012000F04AFBD4F88C610D
:100EC800002E00F0D980D4F88C31B06A996A03F00A
:100ED80029F8002840F0D0803046FFF765FF366BD0
:100EE800EEE7D4F8983100250133C4F89831C3E00F
:100EF80090F8822172BB00F5B9766049304603F05C
:100F080011F820B15E49304603F00CF808B9012306
:100F18000CE05C49304603F005F820B15A493046E8
:100F280003F000F808B9002300E0022384F88131B7
:100F3800D4F88831C4F88C31D4F88C71002F00F0C3
:100F48009B803146B86A02F0EDFF002880F290805D
:100F58003B6BEFE790F88111022971D090F872315C
:100F6800002B6DD042EA4112013A282A68D8DFE8FE
:100F780002F01521242B324950575C676167676777
:100F880067676767676767676767676767676767E9
:100F98006767151C21242B32393E430000F5B971CF
:100FA80000F58070FFF7CEFE4AE0A3F1410043420E
:100FB80043412BE000F1D40108E0A3F153014B4277
:100FC8004B4180F8DC303BE000F1E00104F5B970FA
:100FD800FFF716FE34E0A3F157025342534180F85D
:100FE800E8302DE000F5B97100F5887026E000F5CD
:100FF800B97100F5907021E000F5B971F030FFF794
:10100800A8FE1DE0302B94BF0023012384F884310F
:1010180016E000F5B97100F5A870FFF7BEFE0FE005
:1010280000F5B97100F5B07008E000F5B97100F588
:10103800987003E000F5B97100F5A070FFF79BFE0A
:10104800D4F88C6104F5B977B6B1D4F88C31B06AAC
:10105800996A02F067FF78B9F26A94F882319A4285
:101068000ADC03D139463046FFF7ADFE366BEBE7B5
:1010780002D00023C4F88C312846F8BDA8420808DD
:10108800AE420808B4420808BA42080838B5D0F891
:101098009031242903F1010304460D46C0F890312C
:1010A8002AD090F8833104D80A290CD00D2932D1DE
:1010B80009E02A2907D02C292DD190F8702182F037
:1010C8002C0280F870210E2B4FF0000005D8234425
:1010D80083F872012046FFF779FE94F882310133D4
:1010E80084F88231002384F88331A5F12A035D4214
:1010F8005D4184F8715138BD0020022384F88301D2
:1011080084F8820184F8700184F8813184F87101CF
:1011180084F8840138BD0D2B9FBF5A1C1B1984F815
:10112800832183F8725194F8710128B994F87011E9
:101138004D4084F8705138BD002038BD00F090B99A
:10114800704710B50446182101F063FE204610BD13
:101158000121008A01F0A5BDF8B51E460F460546D7
:10116800036814461B699847012E88BF47F040075B
:1011780047F08001E86800F041FC2644B44206D0FC
:101188000021E86800F03AFC04F8010BF6E72B6848
:1011980028465B6998470120F8BDF8B51E460F46FA
:1011A8000546036814461B699847012E88BF47F017
:1011B80040073946E86800F021FC2644B44205D0CF
:1011C80014F8011BE86800F019FCF7E72B682846BB
:1011D8005B6998470120F8BD002202704270827056
:1011E800C270027142718271C2710272427282725D
:1011F80070472F2202700922427040228270082212
:1012080002710A22C1714272704713B5036801AABC
:101218009C680123A0479DF8040002B010BD38B5B2
:1012280005460A240F212846FFF7EFFF33284FF021
:10123800010005D000F0B2FD013CF3D1204638BDD5
:1012480038BD37B502AC036804F8042DDD682246C2
:101258000123A84703B030BD70B504460D46FFF71B
:10126800DEFF064628B901F091FA284900F0CAFCC9
:1012780049E02A7820212046FFF7E3FF6A782121F8
:101288002046FFF7DEFFAA7822212046FFF7D9FF84
:10129800EA7823212046FFF7D4FF2A792421204623
:1012A800FFF7CFFF6A7925212046FFF7CAFFAB7900
:1012B8001BB126212046FFF7A8FFAA7A2E21204637
:1012C800FFF7BFFFAB785B061DD5EA7932212046D0
:1012D800FFF7B7FF2A7A33212046FFF7B2FF63688A
:1012E800002B0ADB6A7A204622723021FFF7A9FF19
:1012F80031212046FFF789FF05E0002222723021C4
:101308002046FFF79EFF304670BD00BF0443080823
:1013180038B531210446FFF778FF227A0546302197
:101328002046FFF78EFF6368002B11DBA08801F0D1
:10133800D1FC01280CD10A2000F030FD31212046D3
:10134800FFF763FF227A30212046FFF77AFFEDE7A7
:10135800284638BD2DE9F04705468A46904600F0F4
:10136800EFF807460646A0F16404B8F1000F07D06D
:1013780000F0E6F8C01B804502D80020BDE8F087E1
:1013880031212846FFF741FF10F0400F81460DD06C
:1013980001F0FCF94B46134A012100F095FC00F0DE
:1013A800CFF806462846FFF7B3FF344624B100F0CD
:1013B800C7F8001B632807D800F0C2F8801B504507
:1013C800D3D30120BDE8F08701F0E0F9064900F029
:1013D80019FC26212846FFF718FF2846FFF798FF33
:1013E8000024E9E7154308083A43080810B50446FD
:1013F8000121C06800F0C4FA0A21E068044A00F03C
:10140800DBFAE0680021BDE8104000F0BCBA00BF7C
:1014180040420F0010B5044608460949636000239E
:10142800237221602375E060226191B200F0A2FA74
:10143800237D13B92046FFF7D9FF204610BD00BF12
:10144800EC42080810B5037D04460BB1FFF7CEFF48
:10145800208A0021BDE8104001F023BC00F000B84C
:1014680008B5024B1B681B68019308BDB00104084E
:1014780008B5024B1B689B68019308BDB0010408BE
:1014880008B5024B1B68DB68019308BDB00104086E
:1014980008B5024B1B681B69019308BDB00104081D
:1014A80008B5024B1B685B69019308BDB0010408CD
:1014B80008B5024B1B681B68019308BDB4010408FA
:1014C80008B5024B1B689B68019308BDB40104086A
:1014D80008B5024B1B68DB68019308BDB40104081A
:1014E80008B5024B1B681B69019308BDB4010408C9
:1014F80008B5024B1B685B69019308BDB401040879
:1015080008B5024B1B68DB69019308BDB4010408E8
:1015180008B5024B1B681B6A019308BDB401040897
:1015280008B5024B1B685B6A019308BDB401040847
:1015380008B5024B1B685B68019308BD9C01040851
:1015480008B5024B1B685B69019308BD9C01040840
:1015580008B5024B1B68DB69019308BDD00104087C
:1015680008B5024B1B681B6B019308BDD00104082A
:1015780008B5024B1B689B69019308BDC4010408A8
:1015880008B5024B1B685B6A019308BDC4010408D7
:1015980008B5024B1B689B6A019308BDC401040887
:1015A80008B5024B1B68DB6A019308BDC401040837
:1015B80008B5024B1B681B6B019308BDC4010408E6
:1015C80008B5024B1B685B6B019308BDC401040896
:1015D80008B5024B1B689B6B019308BDC401040846
:1015E80008B5024B1B681B6C019308BDC4010408B5
:1015F80008B5024B1B68DB6C019308BDC4010408E5
:1016080008B5024B1B685B69019308BDAC0104086F
:1016180008B5024B1B689B69019308BDAC0104081F
:1016280008B5024B1B68DB69019308BDAC010408CF
:1016380008B5024B1B681B6A019308BDAC0104087E
:1016480008B5024B1B685B6A019308BDAC0104082E
:1016580008B5024B1B689B6A019308BDAC010408DE
:1016680008B5024B1B68DB6A019308BDAC0104088E
:1016780008B5024B1B681B6B019308BDAC0104083D
:1016880008B5024B1B685B6B019308BDAC010408ED
:1016980008B5024B1B681B6C019308BDAC0104081C
:1016A80008B5024B1B689B6C019308BDAC0104088C
:1016B80008B5024B1B68DB6C019308BDAC0104083C
:1016C80008B5024B1B68DB6B019308BD20000608B8
:1016D80008B5024B1B681B68019308BD1C0006086F
:1016E80008B5024B1B685B68019308BD1C0006081F
:1016F80008B5024B1B681B69019308BD1C0006084E
:1017080008B5024B1B685B69019308BD1C000608FD
:1017180008B5024B1B689B69019308BD1C000608AD
:1017280008B5024B1B68DB69019308BD1C0006085D
:1017380008B5024B1B681B6A019308BD1C0006080C
:1017480008B5024B1B685B68019308BDA401040837
:1017580008B5024B1B685B69019308BDA401040826
:1017680008B5024B1B68DB6A019308BDA401040895
:1017780008B5024B1B689B6B019308BDA4010408C4
:1017880008B5024B1B68DB6C019308BDA401040873
:1017980008B5024B1B685B6D019308BDA4010408E2
:1017A80008B5034B1B68D3F89030019308BD0000BF
:1017B800A401040808B5034B1B68D3F89C300193B7
:1017C80008BD0000A401040808B5034B1B68D3F842
:1017D800A830019308BD0000A401040808B5024B15
:1017E8001B685B68019308BDC801040808B5024B73
:1017F8001B689B68019308BDC801040808B5024B23
:101808001B68DB68019308BDC801040808B5024BD2
:101818001B681B69019308BDC801040808B5024B81
:101828001B685B69019308BDC801040808B5024B31
:101838001B689B69019308BDC801040808B5024BE1
:101848001B68DB69019308BDC801040808B5024B91
:101858001B681B6A019308BDC801040808B5024B40
:101868001B681B6B019308BDC801040808B5024B2F
:101878001B685B6B019308BDC801040808B5024BDF
:101888001B681B68019308BDCC01040808B5024B0E
:101898001B685B68019308BDCC01040808B5024BBE
:1018A8001B685B69019308BDCC01040808B5024BAD
:1018B8001B681B6A019308BDCC01040808B5024BDC
:1018C8001B68DB6B019308BDCC01040808B5024B0B
:1018D8001B681B68019308BDA001040808B5024BEA
:1018E8001B685B68019308BDA001040808B5024B9A
:1018F8001B689B68019308BDA001040808B5024B4A
:101908001B68DB69019308BDA001040808B5024BF8
:101918001B685B6A019308BDA001040808B5024B67
:101928001B68DB6A019308BDA001040808B5024BD7
:101938001B681B6B019308BDA0010408704710B514
:101948000446102101F065FA204610BD70B5044622
:101958000E46074B0025036040F80C5FFFF700FEBA
:1019680030462671FFF7CCFDA560204670BD00BF4C
:10197800504308082E2902D80079FFF799BD70470F
:101988000079FFF79DBD0079FFF7A2BD400830B58B
:10199800186000241868E5B2884206D90134082C7A
:1019A80002D040081860F5E70725024B5B5D13700D
:1019B80030BD00BF5843080870B5044602FB01F566
:1019C80088B006791422002103A802F07AFA0B23C2
:1019D80003A930460022ADF80C30FFF7A1FD02AB99
:1019E8000DF1070229460498FFF7D0FF20799DF8EA
:1019F8000710FFF775FD029808B070BD08B50079AB
:101A0800FFF776FDC0B208BD0079FFF781BD10B5BC
:101A18000024047044804FF6FF740029848007DD99
:101A28000139994209D232F811308380012301E04B
:101A380002D10223037010BD418010BD70B50D4660
:101A4800164686B01A46002302930C9B044601935F
:101A58000B9B3146009328460A9BFFF7B5FE334699
:101A68002A46014604A8FFF7D2FF064B0498BDF8A2
:101A78001420186020469A801A689B882260A380E8
:101A880006B070BD440400204FF6FF72034B0020DF
:101A9800187058809A80FFF753BE00BF4404002096
:101AA80010B504460068FFF719FF204610BD10B5B1
:101AB8000446006808B1FFF711FF00232360A36004
:101AC800636010BD38B504460D4600680131FFF764
:101AD8000DFF10B184E82100012038BD10B503685E
:101AE800044613B143688B4207D22046FFF7EAFF4A
:101AF80020B1A3680BB922681370012010BD70B51E
:101B08000E46114604461546FFF7E8FF18B9204669
:101B1800FFF7CDFF09E02A463146A560206802F0AC
:101B2800C5F92268A3680021D154204670BD38B594
:101B38000023044603604360836003730D4639B194
:101B4800084602F01CFA294602462046FFF7D7FF4E
:101B5800204638BD884210B50B46044607D00968B0
:101B680019B19A68FFF7CBFF01E0FFF7A0FF204605
:101B780010BD10B5044600230360436083600373FF
:101B8800FFF7E8FF204610BD006808B102F07CB9F5
:101B98007047F8B506460D468F180024BD420CD094
:101BA800336815F8011B9B6830469847002801DB0D
:101BB8000444F3E7002C08BF04462046F8BD70B57E
:101BC80005460C46084649B102F0D9F92B68024689
:101BD80021462846BDE87040DB68184770BD08B547
:101BE800FFF7EDFF08BD03689B68184738B50D215E
:101BF8000546FFF7F8FF0A2104462846FFF7F3FFDA
:101C0800204438BD38B50546FFF7D9FF04462846B5
:101C1800FFF7ECFF204438BD012A98BF0A2230B5EF
:101C28000B468BB000218DF824100DF12304B3FB73
:101C3800F2F505FB1233DBB2092B94BF303337338F
:101C4800DBB2214604F801392B46002DEFD1FFF70E
:101C5800B6FF0BB030BD10B422B90368C9B29B6897
:101C680010BC1847D2B210BCFFF7D6BFFFF7F3BFBE
:101C78002DE9F04107460E4615462AB9BDE8F04160
:101C88000368C9B29B6818470A2A02D1002901DAF9
:101C980004E0D2B2BDE8F041FFF7BEBF2D21FFF747
:101CA800A2FF2A46044671423846FFF7B5FF204492
:101CB800BDE8F08138B50546FFF7DAFF0446284647
:101CC800FFF794FF204438BD0CB42DE9F04387B0EA
:101CD80000AF07F1380454F8049B05460E46234626
:101CE8004A461421381D3C60FFF710FE132805D81A
:101CF800391D2846FFF763FF044613E000F1080387
:101D080023F00703E846ADEB030D411C23464A4682
:101D180068463C60FFF7FAFD69462846FFF74FFF23
:101D28000446C5461EB12846FFF760FF0444204616
:101D38001C37BD46BDE8F04302B0704738B50468AB
:101D480005467CB16368013B63605BB92368204644
:101D58009B689847A368013BA3601BB9236820468A
:101D6800DB689847284638BD0B68036013B15A688A
:101D780001325A6070470000014A024B1A607047EE
:101D8800134408084C040020024B1A68024B1A60DE
:101D9800704700BF38000020500400200021FFF7E2
:101DA800D7BC10B58368044613B10322014698478F
:101DB800204610BD10B50446FFF7F3FF204610BDBE
:101DC80013B50B46044603C88DE8030093E80300E7
:101DD80084E803009DE8030083E8030002B010BD17
:101DE800034800238360034A034901F00DB800BF8C
:101DF80054040020A4000020BD1D0808006800F05D
:101E08008CBE10B50446016002710AB1FFF7F6FFF7
:101E1800204610BD38B504460D4600F0D5FF2A46C9
:101E280001462046FFF7EDFF204638BD006800F068
:101E38007DBE10B5037904460BB1FFF7F7FF2046C6
:101E480010BDF8B504460F4616461D46FFF7D6FFE7
:101E58002068362100F056FE2068394603689B68E2
:101E680098470121206800F050FE02223621012304
:101E7800206800F03EFE206803685B699847307070
:101E8800206803685B69984728702046BDE8F840D9
:101E9800FFF7CCBF13B5002202AB03F8012D8DF874
:101EA800062004210DF10602FFF7CBFF9DF807007D
:101EB80001F04EFA0022084B01F0B0FA01F0C0FC24
:101EC80004469DF8060001F0C5FD0146204601F0D4
:101ED8000DFD02B010BD00BF0000703F08B5184BE3
:101EE80033B100F053FC03681B69984700281EDCD7
:101EF800144B33B100F07CFD03681B699847002838
:101F080018DC114B0BB1AFF30080104B0BB1AFF3E2
:101F180000800F4B0BB1AFF300800E4B7BB100F08C
:101F280071FC03681B699847002806DC08BDAFF3FD
:101F38000080DDE7AFF30080E3E7AFF3008008BD82
:101F48000000000000000000000000000000000089
:101F5800000000000000000008B5FFF7BFFFFFF712
:101F6800EFFA014B186008BD300900200248034A07
:101F78000349121A01F09ABF00400240044002408F
:101F88003047080807B5002300931A466FF0770119
:101F9800FFF710FC03B05DF804FB000007B54388A9
:101FA8000A2B08D0502B09D1094B1B683BB103B051
:101FB8005DF804EB1847FFF7E5FF06E00023009300
:101FC8001A466FF07701FFF7F5FB03B05DF804FBE5
:101FD8006404002038B5104C104D2368AB42104BF8
:101FE8000CBF012200221A7002D0FFF7BFFF256044
:101FF800FFF79EFA044601F06DFF0A4B13B1204625
:10200800AFF3008000210748FFF758FCBDE83840CF
:1020180000210548FFF7C4BB004002401E1C279A58
:102028006804002000000000A51F08087047002071
:10203800704710B50446102100F0EBFE204610BD95
:1020480008B508B1FFF7F5FF08BD002202604FF69A
:102058009C72828010B5B1F9044084808A8002683D
:102068000C6804600A6010BD10B504460068FFF7EC
:1020780035FC204610BD38B5C468F4B12378022B6E
:1020880003D104F10C00FFF7EFFF656835B128466E
:10209800FFF787FE1021284600F0BBFEA56835B182
:1020A8002846FFF77EFE1021284600F0B2FE2046A3
:1020B800BDE83840142100F0ACBE38BD10B588B07A
:1020C80004466846FFF733FD694604A8FFF751FD4B
:1020D80004A8A047044604A8FFF7E2FC6846FFF7F7
:1020E800DFFC204608B010BDF0B507460E46154681
:1020F80085B0102422460021684601F0E2FE002245
:1021080069461046ADF80040029703960195FFF71F
:10211800BDFB05B0F0BD13B5044691E805000023EA
:102128004B600B602060626001A801930093FFF789
:1021380005FE204602B010BDF7B50C4606460F4610
:1021480054F8043B02AD45F8083D214601A8FFF7C5
:102158000BFE29463046FFF7DEFF01A8FFF7EEFD2C
:102168002046FFF7EBFD3846082100F052FE3046C6
:1021780003B0F0BD38B500230446036010200D46B7
:10218800FDF787FF28B1012343608360024BC560D8
:1021980003602060204638BD70440808826810B586
:1021A8000AB900F038FEC368BDE81040184708B502
:1021B800006800F11001FFF7F1FF08BD826810B553
:1021C8000AB900F028FEC368BDE81040184708B5F2
:1021D800006800F11001FFF7F1FF08BD38B50023D2
:1021E80083608B6804460D462BB102229847EB6842
:1021F800E360AB68A360204638BD0000F0B589B045
:1022080004686846FFF721FF4FF0020200238DF8AB
:102218000830D4E84F3F002B03D1C4E8412F0029F0
:10222800F7D102D08DF8083063E014F10C0503D023
:1022380069462846FFF709FFBFF35F8F01236370E4
:10224800BFF35F8F04F10803002053E8006F43E8F1
:102258000002002AF9D1BFF35F8F002E49D0FFF7A3
:102268008FFA20B129463046FFF798FF3AE0314609
:1022780002A8FFF7B3FFE068B4F9105008B101F005
:1022880063FE06901020ADF81C50FDF702FF0546CE
:10229800E8B1002787601820FDF7FBFE044688B1E7
:1022A8000146876002A8FFF78BFD049BA268A36024
:1022B800059B0492E26806A9E36004F11000059208
:1022C800FFF7C3FE0D4B2C60EB600D4BAB6006A80F
:1022D800FFF7CAFE02A8FFF764FD00222946094855
:1022E800FFF756FA3046FFF75CFD1021304600F044
:1022F80090FD6846FFF7B8FE09B0F0BDB7210808A1
:102308002D240808452A08082DE9F04F8BB0064609
:102318000F46904699469DF850A0FFF7BFFA07ADC3
:10232800834630BB4FF62E73059005A92846ADF8B5
:102338001830FFF78AFE1420FDF7ABFE044658B1AB
:102348000223037001234370C0F804B0C0F808B03A
:1023580029460C30FFF779FE3046214640F8044BF9
:10236800FFF708FF2846FFF77FFE05A8FFF77CFE6A
:1023780052E000240C2314206C60AC600793FDF736
:1023880088FE014618B1047044704460846004A853
:102398000391FFF7EFFE224B08200893FDF779FE23
:1023A800044628B1039B04A940F8043BFFF7DCFC72
:1023B80000955FFA8AF34A46414638460994FFF782
:1023C80075FA20B9039B5B7803F0FF0283B1039B86
:1023D80004A906A80593FFF7C7FC05A93046FFF72F
:1023E8009AFE06A8FFF7AAFC04A8FFF7A7FC13E0CB
:1023F8004FF69C7305A903A80592ADF81830FFF7AE
:10240800FDFE05A8FFF730FE05A80999FFF794FE21
:1024180006A8FFF793FCDAE730460BB0BDE8F08F6B
:102428009D250808022AF8B5044606D0032A17D0C5
:10243800012A22D10B6803601FE018200E68FDF7FF
:1024480028FE054650B13146FFF7C8FE3069B6F997
:10245800147008B101F078FD2861AF8225600CE0A6
:10246800046854B104F11000FFF7FEFD2046FFF7A1
:1024780098FC1821204600F0CCFC0020F8BD38B5A7
:10248800002383608B6804460D462BB102229847CF
:10249800EB68E360AB68A360204638BD022A70B5DC
:1024A800044606D0032A11D0012A18D10B6803600C
:1024B80015E014200E68FDF7ECFD054620B1314605
:1024C800FFF7DDFF337C2B74256008E0046834B126
:1024D8002046FFF766FC1421204600F09AFC0020F5
:1024E80070BD0000F0B50C46BFF35F8F87B00023C6
:1024F80050E8006F40E80032002AF9D1BFF35F8F3F
:10250800002E3FD01846FFF73BF9074620B1214679
:102518003046FFF753FE2EE0314601A8FFF7AFFF24
:10252800237810208DF81430FDF7B3FD0546D0B19F
:1025380087601420FDF7ADFD044678B18760014639
:1025480001A8FFF73DFC039BA268A360049B0392CC
:10255800E268E3609DF81430049223740A4B2C60FF
:10256800EB600A4BAB6001A8FFF71BFC0022294671
:102578000748FFF70DF93046FFF713FC10213046E6
:1025880000F047FC07B0F0BDD7210808A5240808CB
:10259800452A080830B5044685B00D4668461146F8
:1025A800FFF7CAFD7CB124B228460DB101F0CCFC7E
:1025B800029002A96846ADF80C40FFF71FFE02A87A
:1025C800FFF752FD1DE04FF0010200988DF808401A
:1025D800D0E84F3FA34203D1C0E8412F0029F7D1EB
:1025E80002D08DF808300CE010F10C014FF0010317
:1025F80018BF0373BFF35F8F043000F8033CFFF785
:1026080071FF01A8FFF79AFB05B030BD704710B500
:102618000446082100F0FDFB204610BDF8B50F4622
:1026280000F10806051D002416F8011D0A22384687
:10263800FFF71CFBAE42044407D0002CF4D02E2137
:102648003846FFF7D0FA0444EEE72046F8BD00000C
:10265800024A026000224260704700BF8C440808AA
:10266800024A02600A684260704700BF8C4408084A
:10267800014A4160026070478C44080810B59DF813
:10268800084044EA032343EA024242EA0161416006
:1026980010BD000037B5044D05609DF81850009531
:1026A800FFF7ECFF03B030BD8C4408084174704755
:1026B800704708B50021007CFFF72AF830EA2000AF
:1026C80028BF4FF0FF3008BD08B50121007CFFF797
:1026D8001FF830EA200028BF4FF0FF3008BD08B5CA
:1026E800007CFFF70DF820EAE07008BD08B5007C13
:1026F800FEF7FEFF20EAE07008BD007CFFF718B87F
:1027080010B50446142100F084FB204610BD38B5EE
:102718000446007C0D46FEF7F3FF002801DC607CD0
:1027280028B12946207CFEF7FBFF20EAE07038BD7F
:1027380010B50446002363604FF47A73A360054B19
:10274800084623600123217463741146FEF7C0FF15
:10275800204610BDA04408080022007CFEF7C0BF38
:1027680010B504461422002101F0ABFB054B2046AE
:102778006360054BE36040F20113238181232382C8
:1027880010BD00BFF10400207004002030B50E4DCC
:1027980087B001A8FFF7E4FF296811F0010410D100
:1027A8002846FDF77AFC60B101AA21460748FFF7E1
:1027B800BFFF2846FDF776FC054A0649034800F0A6
:1027C80023FB024807B030BD6C040020F40500204C
:1027D800A4000020B926080810B5044614220021D8
:1027E80001F06FFB054B20466360054BE36040F248
:1027F800011323818123238210BD00BFA40600207A
:102808000C06002010B50E4C86B001A8FFF7E4FFB7
:102818002368DB0710D42046FDF73FFC60B101AA0E
:1028280001210848FFF784FF2046FDF73BFC064AD4
:102838000649044800F0E8FA024806B010BD00BF97
:102848000806002090060020A4000020B9260808E9
:10285800002211464068FEF7D9BF2DE9FF41002646
:1028680004AC054610468846174644F8046D01F046
:1028780086FB009681B2D8F8043022463846FEF727
:102888001FFF20B131462846FFF7F2FE03E021463C
:102898002846FFF7E5FE284604B0BDE8F08100228F
:1028A80011464068FEF7D2BF002211464068FEF785
:1028B800DDBF00224068FEF7D1BF002281F0010190
:1028C8004068FEF7BBBF00231A4619464068FEF76A
:1028D800ADBF00231A4619464068FEF79FBF002285
:1028E80011464068FEF782BF002202214068FEF7C9
:1028F80085BF00231A464068FEF770BF38B5084CFC
:1029080028252A460021204601F0DBFA4FF0FF3344
:102918006360044B04225A60034A25801A6038BD5C
:10292800B0070020A8070020D04408087047417469
:10293800704708B5007CFEF753FE20EAE07008BD3A
:1029480008B5007CFEF724FE20EAE07008BD08B553
:10295800007CFEF72DFE30EA200028BF4FF0FF3044
:1029680008BD08B5007CFEF71BFE30EA200028BF32
:102978004FF0FF3008BD007CFEF722BE10B50446BC
:10298800142100F046FA204610BD70B5457C044677
:102998000E4625B9007CFEF723FE002805DD3146EA
:1029A800207CBDE87040FEF7EBBD284670BD0000F6
:1029B80010B5044608461146002262604FF47A7248
:1029C800A260054A20742260012262741A46FEF74A
:1029D800CFFD204610BD00BF044508080023007C39
:1029E800FEF706BE0022FFF7F9BF007CFEF7F0BD38
:1029F80038B50C4D296811F0010411D12846FDF7AE
:102A08004CFB68B1084A2146084B0948FFF7D0FF3C
:102A18002846FDF747FB074A0749054800F0F4F93F
:102A2800034838BD7008002074080020EC07002017
:102A3800D8070020A40000203529080810B58368AD
:102A480004460BB900F0E7F9C3689847A3681BB1BF
:102A580003222146204698472046BDE81040102111
:102A680000F0D7B97047F8B5064615460C468F18DA
:102A7800BC4206D0336814F8011B9B68304698475F
:102A8800F6E72846F8BD0022007CFEF7D1BD0021FC
:102A9800007CFEF7D5BD0021007CFEF7D9BD0021E2
:102AA800007CFEF7DDBD0021007CFEF7E1BD10B51E
:102AB8000446142100F0ADF9204610BD10B50446B7
:102AC80008464FF47A73A360044B002120746160B8
:102AD8002360FEF7DDFD204610BD00BF3445080821
:102AE80013B50024007C0094FEF78AFDC0B202B042
:102AF80010BDDBB2D2B2C9B2FFF7F2BF0022007C30
:102B0800FEF786BDC9B2FFF7F9BF0022007CFEF7C9
:102B180087BD0021007CFEF7B3BD08B50021007C0D
:102B2800FEF7BEFDB0FA80F0400908BD08B50021E7
:102B3800007CFEF7BDFDB0FA80F0400908BD002317
:102B48001A464068FEF74ABE002202214068FEF796
:102B580055BE002211464068FEF748BE00221146C5
:102B68004068FEF753BE00231A4619464068FEF730
:102B780055BE00231A4619464068FEF757BE002284
:102B880081F001014068FEF759BE00224068FEF757
:102B980065BE002211464068FEF768BE0022114655
:102BA8004068FEF753BE0000F0B5174687B00546EB
:102BB80004A8FFF74DFD002606AC384644F80C6D16
:102BC80001F0DDF90A4B009681B25B68224638466F
:102BD800FEF776FD20B131462846FFF749FD03E0B0
:102BE80021462846FFF73CFD284607B0F0BD00BF48
:102BF800A8070020024B034A1A6000225A60704757
:102C0800F80800205C45080808B5024B1B681B68DB
:102C1800019308BD9C01020808B5024B1B685B685C
:102C2800019308BD9C01020808B5024B1B689B680C
:102C3800019308BD9C01020810B504460F48FEF731
:102C4800E3FE28B1A4F10D03022B01D8002010BD2A
:102C580000F09AF8FFF75DFF08B1012CF6D9FFF7ED
:102C6800C7FEFFF7C2FE18B1A4F11203012BEDD97C
:102C78002E2C8CBF0020012010BD00BF00090020B1
:102C88002E2838B504460D460AD8FF2908D0FFF784
:102C9800D3FF28B129462046BDE83840FEF7E8BBF7
:102CA80038BD38B504460D46FEF7EAFBFF2810D0BC
:102CB800062804D84D2323FA00F0C30709D4204678
:102CC800FFF7BAFF28B129462046BDE83840FEF78D
:102CD800DFBB38BD10B50446FEF7D2FB0438C0B2DE
:102CE800012808D92046FFF7A7FF20B12046BDE8F4
:102CF8001040FEF7D5BB002010BD000070B5114E86
:102D0800114D124C00213046FEF720FE3046104E81
:102D18002A46214600F078F801213046FEF716FED3
:102D280030460C4E2A46214600F06EF80221304605
:102D3800FEF70CFE2A4621463046BDE8704000F0FA
:102D480063B800BF00090020A40000204519080846
:102D5800100900202009002013B5084C00231A464A
:102D6800194600932046FFF795FC2046044A05497A
:102D780002B0BDE8104000F047B800BF3409002099
:102D8800A40000201526080838B50B4D296811F055
:102D980001040FD12846FDF780F958B121460748AC
:102DA800FFF78CFE2846FDF77DF9054A05490348DB
:102DB80000F02AF8014838BD3C09002054090020D9
:102DC800A40000206D2A080810B50B4C2368DB0707
:102DD8000FD42046FDF761F958B102210748FFF7E3
:102DE8006DFE2046FDF75EF9054A0649034800F0E6
:102DF8000BF8024810BD00BF6809002040090020F8
:102E0800A40000206D2A08080B460146184601F068
:102E18003FB8FDF740B908B5FEF780FD184B1A68B2
:102E2800D1075CBF01221A60164B1A68D2075CBF33
:102E380001221A60144B1A68D0075CBF01221A607D
:102E4800124B1A68D1075CBF01221A60104B1A682E
:102E5800D2075CBF01221A600E4B1A68D0075CBF0C
:102E680001221A600C4B1A68D1075CBF01221A6054
:102E78000A4B1A68D2075CBF01221A60704700BF6C
:102E88008809002084090020800900207C0900208E
:102E98007809002074090020700900206C090020BE
:102EA800244B1A68D0075CBF01221A60224B1A68AB
:102EB800D1075CBF01221A60204B1A68D2075CBF99
:102EC80001221A601E4B1A68D0075CBF01221A60E3
:102ED8001C4B1A68D1075CBF01221A601A4B1A688A
:102EE800D2075CBF01221A60184B1A68D0075CBF72
:102EF80001221A60164B1A68D1075CBF01221A60BA
:102F0800144B1A68D2075CBF01221A60124B1A6868
:102F1800D0075CBF01221A60104B1A68D1075CBF4A
:102F280001221A600E4B1A68D2075CBF01221A6090
:102F3800704700BFB8090020B4090020B00900207C
:102F4800AC090020A8090020A4090020A00900203D
:102F58009C0900209809002094090020900900206D
:102F68008C090020244B1A68D0075CBF01221A6024
:102F7800224B1A68D1075CBF01221A60204B1A68DD
:102F8800D2075CBF01221A601E4B1A68D0075CBFCB
:102F980001221A601C4B1A68D1075CBF01221A6013
:102FA8001A4B1A68D2075CBF01221A60184B1A68BC
:102FB800D0075CBF01221A60164B1A68D1075CBFA4
:102FC80001221A60144B1A68D2075CBF01221A60EA
:102FD800124B1A68D0075CBF01221A60104B1A689E
:102FE800D1075CBF01221A600E4B1A68D2075CBF7A
:102FF80001221A60704700BFE8090020E409002098
:10300800E0090020DC090020D8090020D4090020AC
:10301800D0090020CC090020C8090020C4090020DC
:10302800C0090020BC090020184B1A68D1075CBFF2
:1030380001221A60164B1A68D2075CBF01221A6077
:10304800144B1A68D0075CBF01221A60124B1A6829
:10305800D1075CBF01221A60104B1A68D2075CBF07
:1030680001221A600E4B1A68D0075CBF01221A6051
:103078000C4B1A68D1075CBF01221A600A4B1A6808
:10308800D2075CBF01221A60704700BF080A0020FF
:10309800040A0020000A0020FC090020F80900208A
:1030A800F4090020F0090020EC09002081F000411B
:1030B80002E000BF83F0004330B54FEA41044FEA15
:1030C800430594EA050F08BF90EA020F1FBF54EAB0
:1030D800000C55EA020C7FEA645C7FEA655C00F04C
:1030E800E2804FEA5454D4EB5555B8BF6D420CDD1D
:1030F8002C4480EA020281EA030382EA000083EAA0
:10310800010180EA020281EA0303362D88BF30BD3F
:1031180011F0004F4FEA01314FF4801C4CEA113195
:1031280002D0404261EB410113F0004F4FEA0333F4
:103138004CEA133302D0524263EB430394EA050F7F
:1031480000F0A780A4F10104D5F1200E0DDB02FAEE
:103158000EFC22FA05F2801841F1000103FA0EF282
:10316800801843FA05F359410EE0A5F120050EF148
:10317800200E012A03FA0EFC28BF4CF0020C43FA79
:1031880005F3C01851EBE37101F0004507D54FF086
:10319800000EDCF1000C7EEB00006EEB0101B1F5D6
:1031A800801F1BD3B1F5001F0CD349085FEA30001C
:1031B8004FEA3C0C04F101044FEA445212F5800F27
:1031C80080F09A80BCF1004F08BF5FEA500C50F1C4
:1031D800000041EB045141EA050130BD5FEA4C0CA7
:1031E800404141EB010111F4801FA4F10104E9D130
:1031F80091F0000F04BF01460020B1FA81F308BF27
:103208002033A3F10B03B3F120020CDA0C3208DDF2
:1032180002F1140CC2F10C0201FA0CF021FA02F1CD
:103228000CE002F11402D8BFC2F1200C01FA02F13D
:1032380020FA0CFCDCBF41EA0C019040E41AA2BF62
:1032480001EB0451294330BD6FEA04041F3C1CDA2A
:103258000C340EDC04F11404C4F1200220FA04F04A
:1032680001FA02F340EA030021FA04F345EA0301F4
:1032780030BDC4F10C04C4F1200220FA02F001FAB6
:1032880004F340EA0300294630BD21FA04F0294638
:1032980030BD94F0000F83F4801306BF81F48011D1
:1032A8000134013D4EE77FEA645C18BF7FEA655C44
:1032B80029D094EA050F08BF90EA020F05D054EA16
:1032C800000C04BF1946104630BD91EA030F1EBF1B
:1032D8000021002030BD5FEA545C05D1400049411F
:1032E80028BF41F0004130BD14F580043CBF01F512
:1032F800801130BD01F0004545F0FE4141F47001F8
:103308004FF0000030BD7FEA645C1ABF19461046D2
:103318007FEA655C1CBF0B46024650EA013406BFD3
:1033280052EA033591EA030F41F4002130BD00BF92
:1033380090F0000F04BF0021704730B54FF480644F
:1033480004F132044FF000054FF0000150E700BFD0
:1033580090F0000F04BF0021704730B54FF480642F
:1033680004F1320410F0004548BF40424FF000011C
:103378003EE700BF42004FEAE2014FEA31014FEA5F
:1033880002701FBF12F07F4393F07F4F81F06051AE
:10339800704792F0000F14BF93F07F4F704730B51D
:1033A8004FF4607401F0004521F0004120E700BFB0
:1033B80050EA010208BF704730B54FF000050AE037
:1033C80050EA010208BF704730B511F0004502D538
:1033D800404261EB41014FF4806404F132045FEA3A
:1033E800915C3FF4DCAE4FF003025FEADC0C18BFDF
:1033F80003325FEADC0C18BF033202EBDC02C2F1D5
:10340800200300FA03FC20FA02F001FA03FE40EA66
:103418000E0021FA02F11444C1E600BF70B54FF066
:10342800FF0C4CF4E06C1CEA11541DBF1CEA135548
:1034380094EA0C0F95EA0C0F00F0DEF82C4481EAB0
:10344800030621EA4C5123EA4C5350EA013518BFD0
:1034580052EA033541F4801143F4801338D0A0FBBD
:1034680002CE4FF00005E1FB02E506F00042E0FB6A
:1034780003E54FF00006E1FB03569CF0000F18BF70
:103488004EF0010EA4F1FF04B6F5007F64F5407418
:1034980004D25FEA4E0E6D4146EB060642EAC621AB
:1034A80041EA55514FEAC52040EA5E504FEACE2E18
:1034B800B4F1FD0C88BFBCF5E06F1ED8BEF1004F1B
:1034C80008BF5FEA500E50F1000041EB045170BD97
:1034D80006F0004646EA010140EA020081EA0301DB
:1034E800B4EB5C04C2BFD4EB0C0541EA045170BDD7
:1034F80041F480114FF0000E013C00F3AB8014F151
:10350800360FDEBF002001F0004170BDC4F1000499
:10351800203C35DA0C341BDC04F11404C4F120051A
:1035280000FA05F320FA04F001FA05F240EA020075
:1035380001F0004221F0004110EBD37021FA04F6AB
:1035480042EB06015EEA430E08BF20EAD37070BD65
:10355800C4F10C04C4F1200500FA04F320FA05F0C4
:1035680001FA04F240EA020001F0004110EBD370C6
:1035780041F100015EEA430E08BF20EAD37070BD36
:10358800C4F1200500FA05F24EEA020E20FA04F30F
:1035980001FA05F243EA020321FA04F001F00041BE
:1035A80021FA04F220EA020000EBD3705EEA430E2F
:1035B80008BF20EAD37070BD94F0000F0FD101F05E
:1035C8000046400041EB010111F4801F08BF013C97
:1035D800F7D041EA060195F0000F18BF704703F0D5
:1035E8000046520043EB030313F4801F08BF013D5C
:1035F800F7D043EA0603704794EA0C0F0CEA135518
:1036080018BF95EA0C0F0CD050EA410618BF52EAD1
:103618004306D1D181EA030101F000414FF00000D7
:1036280070BD50EA410606BF1046194652EA4306E5
:1036380019D094EA0C0F02D150EA013613D195EA59
:103648000C0F05D152EA03361CBF104619460AD1A1
:1036580081EA030101F0004141F0FE4141F47001AB
:103668004FF0000070BD41F0FE4141F4780170BD9B
:1036780070B54FF0FF0C4CF4E06C1CEA11541DBF00
:103688001CEA135594EA0C0F95EA0C0F00F0A7F802
:10369800A4EB050481EA030E52EA03354FEA01312F
:1036A80000F088804FEA03334FF0805545EA131342
:1036B80043EA12634FEA022245EA111545EA10650A
:1036C8004FEA00260EF000419D4208BF964244F1A1
:1036D800FD0404F5407402D25B084FEA3202B61AC0
:1036E80065EB03055B084FEA32024FF480104FF494
:1036F800002CB6EB020E75EB030E22BFB61A754608
:1037080040EA0C005B084FEA3202B6EB020E75EB9A
:10371800030E22BFB61A754640EA5C005B084FEA02
:103728003202B6EB020E75EB030E22BFB61A7546CF
:1037380040EA9C005B084FEA3202B6EB020E75EBDA
:10374800030E22BFB61A754640EADC0055EA060E9B
:1037580018D04FEA051545EA16754FEA06164FEADE
:10376800C30343EA52734FEAC2025FEA1C1CC0D18A
:1037780011F4801F0BD141EA00014FF000004FF017
:10378800004CB6E711F4801F04BF01430020B4F1D8
:10379800FD0C88BFBCF5E06F3FF6AFAEB5EB030C90
:1037A80004BFB6EB020C5FEA500C50F1000041EB8D
:1037B800045170BD0EF0004E4EEA113114EB5C045A
:1037C800C2BFD4EB0C0541EA045170BD41F480112D
:1037D8004FF0000E013C90E645EA060E8DE60CEA35
:1037E800135594EA0C0F08BF95EA0C0F3FF43BAF52
:1037F80094EA0C0F0AD150EA01347FF434AF95EA09
:103808000C0F7FF425AF104619462CE795EA0C0FEC
:1038180006D152EA03353FF4FDAE1046194622E7B9
:1038280050EA410618BF52EA43067FF4C5AE50EA93
:1038380041047FF40DAF52EA43057FF4EBAE12E783
:103848004FEA4102B2F1E04324BFB3F5001CDCF1BA
:10385800FE5C0DD901F0004C4FEAC0024CEA5070F2
:10386800B2F1004F40EB830008BF20F00100704721
:1038780011F0804F21D113F13872BCBF01F0004024
:10388800704741F480114FEA5252C2F11802C2F156
:10389800200C10FA0CF320FA02F018BF40F00100D7
:1038A8004FEAC1234FEAD32303FA0CFC40EA0C0089
:1038B80023FA02F34FEA4303CCE77FEA625307D1C6
:1038C80050EA01331EBF4FF0FE4040F440007047FD
:1038D80001F0004040F0FE4040F40000704700BF97
:1038E80080F0004002E000BF81F0004142001FBFAD
:1038F8005FEA410392EA030F7FEA226C7FEA236CB6
:103908006AD04FEA1262D2EB1363C1BFD2184140AA
:1039180048404140B8BF5B42192B88BF704710F040
:10392800004F40F4000020F07F4018BF404211F0E3
:10393800004F41F4000121F07F4118BF494292EA4B
:10394800030F3FD0A2F1010241FA03FC10EB0C0077
:10395800C3F1200301FA03F100F0004302D5494204
:1039680060EB4000B0F5000F13D3B0F1807F06D3B1
:1039780040084FEA310102F10102FE2A51D2B1F1A9
:10398800004F40EBC25008BF20F0010040EA03009E
:103998007047490040EB000010F4000FA2F101024B
:1039A800EDD1B0FA80FCACF1080CB2EB0C0200FAD5
:1039B8000CF0AABF00EBC25052421843BCBFD04023
:1039C8001843704792F0000F81F4000106BF80F49D
:1039D80000000132013BB5E74FEA41037FEA226C60
:1039E80018BF7FEA236C21D092EA030F04D092F02B
:1039F800000F08BF0846704790EA010F1CBF00205F
:103A0800704712F07F4F04D1400028BF40F00040BB
:103A1800704712F100723CBF00F50000704700F0DB
:103A2800004343F0FE4040F4000070477FEA226202
:103A380016BF08467FEA23630146420206BF5FEAD3
:103A4800412390EA010F40F4800070474FF00003D3
:103A580004E000BF10F0004348BF40425FEA000C9A
:103A680008BF704743F0964301464FF000001CE042
:103A780050EA010208BF70474FF000030AE000BF98
:103A880050EA010208BF704711F0004302D54042D6
:103A980061EB41015FEA010C02BF84460146002048
:103AA80043F0B64308BFA3F18053A3F50003BCFA63
:103AB8008CF2083AA3EBC25310DB01FA02FC634410
:103AC80000FA02FCC2F12002BCF1004F20FA02F217
:103AD80043EB020008BF20F00100704702F120020A
:103AE80001FA02FCC2F1200250EA4C0021FA02F26B
:103AF80043EB020008BF20EADC7070474FF0FF0C70
:103B08001CEAD0521EBF1CEAD15392EA0C0F93EA6A
:103B18000C0F6FD01A4480EA010C400218BF5FEA0C
:103B280041211ED04FF0006343EA501043EA51117F
:103B3800A0FB01310CF00040B1F5000F3EBF490079
:103B480041EAD3715B0040EA010062F17F02FD2A7D
:103B58001DD8B3F1004F40EBC25008BF20F0010060
:103B6800704790F0000F0CF0004C08BF49024CEA77
:103B7800502040EA51207F3AC2BFD2F1FF0340EA09
:103B8800C250704740F400004FF00003013A5DDC7A
:103B980012F1190FDCBF00F000407047C2F10002BB
:103BA800410021FA02F1C2F1200200FA02FC5FEAA8
:103BB800310040F1000053EA4C0308BF20EADC70F2
:103BC800704792F0000F00F0004C02BF400010F464
:103BD800000F013AF9D040EA0C0093F0000F01F011
:103BE800004C02BF490011F4000F013BF9D041EA33
:103BF8000C018FE70CEAD15392EA0C0F18BF93EA35
:103C08000C0F0AD030F0004C18BF31F0004CD8D15E
:103C180080EA010000F00040704790F0000F17BFE5
:103C280090F0004F084691F0000F91F0004F14D02B
:103C380092EA0C0F01D142020FD193EA0C0F03D183
:103C48004B0218BF084608D180EA010000F0004086
:103C580040F0FE4040F40000704740F0FE4040F461
:103C6800400070474FF0FF0C1CEAD0521EBF1CEA00
:103C7800D15392EA0C0F93EA0C0F69D0A2EB03021E
:103C880080EA010C49024FEA402037D04FF08053B8
:103C980043EA111143EA10130CF000408B4238BF7D
:103CA8005B0042F17D024FF4000C8B4224BF5B1A8B
:103CB80040EA0C00B3EB510F24BFA3EB510340EAD9
:103CC8005C00B3EB910F24BFA3EB910340EA9C0087
:103CD800B3EBD10F24BFA3EBD10340EADC001B01F7
:103CE80018BF5FEA1C1CE0D1FD2A3FF650AF8B429B
:103CF80040EBC25008BF20F0010070470CF0004CA8
:103D08004CEA50207F32C2BFD2F1FF0340EAC250D2
:103D1800704740F400004FF00003013A37E792F093
:103D2800000F00F0004C02BF400010F4000F013AF1
:103D3800F9D040EA0C0093F0000F01F0004C02BFEC
:103D4800490011F4000F013BF9D041EA0C0195E755
:103D58000CEAD15392EA0C0F08D142027FF47DAFEE
:103D680093EA0C0F7FF470AF084676E793EA0C0FDE
:103D780004D14B023FF44CAF08466EE730F0004CDC
:103D880018BF31F0004CCAD130F000427FF45CAF6C
:103D980031F000437FF43CAF5FE700BF4FF0FF3CDA
:103DA80006E000BF4FF0010C02E000BF4FF0010C2D
:103DB8004DF804CD4FEA40024FEA41037FEA226CF6
:103DC80018BF7FEA236C11D001B052EA530C18BF18
:103DD80090EA010F58BFB2EB030088BFC81738BF7D
:103DE8006FEAE17018BF40F0010070477FEA226C6B
:103DF80002D15FEA402C05D17FEA236CE4D15FEA67
:103E0800412CE1D05DF8040B704700BF844608469A
:103E18006146FFE70FB5FFF7C9FF002848BF10F15B
:103E2800000F0FBD4DF808EDFFF7F4FF0CBF0120A0
:103E380000205DF808FB00BF4DF808EDFFF7EAFF2A
:103E480034BF012000205DF808FB00BF4DF808EDE5
:103E5800FFF7E0FF94BF012000205DF808FB00BFDA
:103E68004DF808EDFFF7D2FF94BF012000205DF860
:103E780008FB00BF4DF808EDFFF7C8FF34BF01206D
:103E880000205DF808FB00BF0A22002100F018B9E5
:103E980010B5054C13462CB10A4601460220AFF373
:103EA800008010BD204610BD0000000010B5431E64
:103EB8000A44914204D011F8014B03F8014FF8E786
:103EC80010BD03460244934202D003F8011BFAE7EF
:103ED8007047000038B5124B05461C68A36BD3B970
:103EE8001820FDF7F3FC43F20E33A06303804AF673
:103EF800CD33438041F2342383804EF26D63C38017
:103F08004DF6EC630381052343810B238381012252
:103F18000023C0E90423A36B00221D615A6138BD48
:103F2800A000002010F8012B11F8013B012A28BF3E
:103F38009A42F7D0D01A7047034611F8012B03F8BC
:103F4800012B002AF9D17047024B0146186800F08E
:103F580003B800BFA000002070B5064608460C460E
:103F680000F00DF8451C29463046FDF7DFFC0646F3
:103F780018B12A462146FFF799FF304670BD03461F
:103F880013F8012B002AFBD1181A01387047034691
:103F980010B542B111F8014B013A03F8014B002C5E
:103FA800F7D11A4400E010BD934202D003F8014B48
:103FB800FAE710BD2DE9F0470F4680463F48D0F894
:103FC80000903D4615F8014B09EB0400407800F0DD
:103FD800080000F0FF0608B12F46F2E72D2C03D1A8
:103FE800BD1C7C78012603E02B2C04BF7C78BD1C0B
:103FF80013B1102B0AD15BE0302C57D1287800F090
:10400800DF0058284DD16C7810230235002E14BFDC
:104018004FF0004C6FF0004CBCFBF3FA0027384619
:1040280003FB1ACC09EB040E9EF801E01EF0040F06
:1040380001D0303C0BE01EF0030E1BD0BEF1010F87
:104048000CBF4FF0370E4FF0570ECEEB0404A342CF
:1040580010DDB7F1FF3F0AD0504506D801D16445BD
:1040680003DC03FB0040012701E04FF0FF3715F8A0
:10407800014BD7E77B1C0CD1002E4FF0220314BF55
:104088004FF000406FF00040C8F800302AB9BDE892
:10409800F08706B1404272B107B1691E1160BDE8F0
:1040A800F0873024002BB1D10823AFE70A23ADE70E
:1040B800302CA3D0AAE7BDE8F08700BF3C00002061
:1040C80013460A46014602480068FFF773BF00BF5F
:1040D800A00000201D0008085D00080889000808E5
:1040E8008D0008080000000025662C256600256C58
:1040F80075206D696C6C697365636F6E6473207489
:104108006F206765742047505320666978006E6F8A
:10411800206C6F636174696F6E00496E2074686506
:104128002047656F2046656E63653A2000416C69DB
:1041380076652053746174653A2000776169746903
:104148006E6720746F20636F6D65206F6E6C696E8B
:104158006500726573657474696E67206163636571
:104168006C65726F6D6574657200616363656C651B
:10417800726F6D65746572206E6F7420666F756EF0
:1041880064006661696C656420746F2067657420DB
:1041980047505320666978007B224C61223A2225D9
:1041A80066222C224C6F223A222566222C22432298
:1041B8003A22252E303266222C2241223A222564C8
:1041C800222C2253223A222564227D00496E7661F0
:1041D8006C6964006177616B653D256400476F69B0
:1041E8006E6720496E746F20496E76616C69642031
:1041F800536C65657000506F77657220746F20731B
:10420800636F6F7465723A2000436865636B696E0B
:104218006720666F7220536C65657000476F696E22
:104228006720496E746F20536F667420536C656500
:104238007000476F696E6720496E746F204465652A
:104248007020536C656570007374696C6C206D6FB9
:1042580076696E67206166746572202575207365BE
:1042680063006B696C6C00676574416C69766553B3
:104278007461746500676F6F676C65446F63730082
:1042880000000000000000007D09080891090808E6
:104298000000000000000000890A08088B0A0808CE
:1042A8004750524D4300474E524D430047504747F1
:1042B8004100474E474741004E004E4E4500454E8F
:1042C8004500455345005353450053005353570089
:1042D80057535700574E57004E4E570000000000E6
:1042E80000000000491108084B110808611108086E
:1042F800A31108084D14080859110808646576695F
:104308006365206E6F7420666F756E6400726573E6
:10431800657474696E67206C6173744D6F76656D32
:10432800656E7420696E74315F7372633D307825F1
:104338007800726563616C6962726174696E6700A6
:104348000000000000000000451908084719080887
:1043580000081018202830386C6E00666E00636FF5
:1043680064650064657461696C000D0A002530316C
:10437800307520005D20002C200028293A200020DC
:104388005B00636F6465203D2000256900646574E7
:1043980061696C73203D2000626175640053657229
:1043A80069616C0055534253657269616C310074E0
:1043B80079706500706172616D00636D6400686E8C
:1043C80064007374726D0066696C74006C766C00BE
:1043D80061646448616E646C65720072656D6F76C5
:1043E8006548616E646C657200656E756D48616ED6
:1043F800646C657273004A534F4E53747265616DF5
:104408004C6F6748616E646C657200617070006E15
:104418006F6E6500747261636500696E666F007720
:1044280061726E006572726F720070616E6963000E
:10443800616C6C005A00252B3033643A2530327594
:104448000025592D256D2D25645425483A254D3ACA
:104458002553257A0061736374696D650000000057
:104468000000000000000000352008083B20080874
:104478007F200808492008083720080800000000A5
:104488000000000025260808152608081726080831
:104498000000000000000000B926080809270808E5
:1044A800172708089B1B0808F5260808BB260808D4
:1044B800D126080803270808E7260808B5260808AB
:1044C8000000000000000000FB280808F128080888
:1044D800E728080859280808DB280808CF2808080A
:1044E800C3280808BB280808B1280808A72808080E
:1044F80063280808000000000000000035290808AB
:1045080085290808932908089B1B080849290808D1
:104518006B290808572908087F2908083729080837
:104528003B29080800000000000000006D2A080868
:10453800B72A08088F2A08086F2A0808972A08083F
:104548009F2A0808A72A0808AF2A080800000000C0
:1045580000000000472B0808512B08085B2B0808AF
:10456800652B08086F2B08087B2B0808872B080881
:10457800932B08089B2B0808A52B0808B12B0808C3
:10458800002020202020202020202828282828201B
:104598002020202020202020202020202020202013
:1045A800208810101010101010101010101010107B
:1045B800100404040404040404040410101010106B
:1045C8001010414141414141010101010101010135
:1045D8000101010101010101010101011010101087
:1045E8001010424242424242020202020202020207
:1045F800020202020202020202020202101010105B
:104608002000000000000000000000000000000082
:104618000000000000000000000000000000000092
:104628000000000000000000000000000000000082
:104638000000000000000000000000000000000072
:104648000000000000000000000000000000000062
:104658000000000000000000000000000000000052
:104668000000000000000000000000000000000042
:104678000000000000000000000000000000000032
:104688000000000000000000000000000000000022
:104698000000000000000000000000000000000012
:1046A8000000000000000000000000000000000002
:1046B80000000000000000000000000000000000F2
:1046C80000000000000000000000000000000000E2
:1046D80000000000000000000000000000000000D2
:1046E800000000005D0808084D0A0808A50A080827
:1046F8004511080865140808911A0808811D08085A
:10470800911D0808E91D080805290808FD2B080857
:10471800052D0808612D0808252E0808A92E080867
:084728006D2F0808313008086C
:044730000000000085
:104734004597BBC2A35DB9C24CAAB9C2411ABCC257
:104744007D420808640000009E373542DAA13542F4
:1047540027F83242A269324201000000B562061312
:1047640004000100F07D8B2E5D440808884508088C
:10477400000000008C460808AC460808CC4608082F
:104784000000000000000000000000000000000025
:10479400B242080800000000000000000000000011
:1047A4000000000000000000000000000000000005
:1047B40000000000000000000000000000000000F5
:1047C40000000000000000000000000000000000E5
:0447D4004000002081
:1047D800FFFFFFFFFD22040000000102030405069D
:1047E8000708090A0B0C0D0E0F10111213141516D9
:0C47F8001718191A1B1C1D1E1F2028007A
:04480400785634129C
:0400000508080018CF
:00000001FF
